{
  "_format": "hh-sol-artifact-1",
  "contractName": "MerkleTreeAirdrop",
  "sourceName": "contracts/MerkleTreeAirdrop.sol",
  "abi": [
    {
      "inputs": [
        {
          "internalType": "contract MyToken",
          "name": "_token",
          "type": "address"
        },
        {
          "internalType": "address",
          "name": "_baycNft",
          "type": "address"
        },
        {
          "internalType": "bytes32",
          "name": "_merkleRoot",
          "type": "bytes32"
        },
        {
          "internalType": "uint256",
          "name": "_totalAirdropSuply",
          "type": "uint256"
        }
      ],
      "stateMutability": "nonpayable",
      "type": "constructor"
    },
    {
      "inputs": [
        {
          "internalType": "address",
          "name": "target",
          "type": "address"
        }
      ],
      "name": "AddressEmptyCode",
      "type": "error"
    },
    {
      "inputs": [
        {
          "internalType": "address",
          "name": "account",
          "type": "address"
        }
      ],
      "name": "AddressInsufficientBalance",
      "type": "error"
    },
    {
      "inputs": [],
      "name": "FailedInnerCall",
      "type": "error"
    },
    {
      "inputs": [
        {
          "internalType": "address",
          "name": "token",
          "type": "address"
        }
      ],
      "name": "SafeERC20FailedOperation",
      "type": "error"
    },
    {
      "anonymous": false,
      "inputs": [
        {
          "indexed": true,
          "internalType": "address",
          "name": "claimant",
          "type": "address"
        },
        {
          "indexed": false,
          "internalType": "uint256",
          "name": "amount",
          "type": "uint256"
        }
      ],
      "name": "Claimed",
      "type": "event"
    },
    {
      "anonymous": false,
      "inputs": [
        {
          "indexed": false,
          "internalType": "bytes32",
          "name": "merkleRoot",
          "type": "bytes32"
        }
      ],
      "name": "MerkleRootUpdated",
      "type": "event"
    },
    {
      "inputs": [],
      "name": "baycNFT",
      "outputs": [
        {
          "internalType": "contract IERC721",
          "name": "",
          "type": "address"
        }
      ],
      "stateMutability": "view",
      "type": "function"
    },
    {
      "inputs": [
        {
          "internalType": "address",
          "name": "claimer",
          "type": "address"
        },
        {
          "internalType": "uint256",
          "name": "_amount",
          "type": "uint256"
        },
        {
          "internalType": "bytes32[]",
          "name": "merkleProof",
          "type": "bytes32[]"
        }
      ],
      "name": "canClaim",
      "outputs": [
        {
          "internalType": "bool",
          "name": "",
          "type": "bool"
        }
      ],
      "stateMutability": "view",
      "type": "function"
    },
    {
      "inputs": [
        {
          "internalType": "uint256",
          "name": "_amount",
          "type": "uint256"
        },
        {
          "internalType": "bytes32[]",
          "name": "merkleProof",
          "type": "bytes32[]"
        }
      ],
      "name": "claim",
      "outputs": [],
      "stateMutability": "nonpayable",
      "type": "function"
    },
    {
      "inputs": [
        {
          "internalType": "address",
          "name": "",
          "type": "address"
        }
      ],
      "name": "claimed",
      "outputs": [
        {
          "internalType": "bool",
          "name": "",
          "type": "bool"
        }
      ],
      "stateMutability": "view",
      "type": "function"
    },
    {
      "inputs": [],
      "name": "merkleRoot",
      "outputs": [
        {
          "internalType": "bytes32",
          "name": "",
          "type": "bytes32"
        }
      ],
      "stateMutability": "view",
      "type": "function"
    },
    {
      "inputs": [],
      "name": "myToken",
      "outputs": [
        {
          "internalType": "contract MyToken",
          "name": "",
          "type": "address"
        }
      ],
      "stateMutability": "view",
      "type": "function"
    },
    {
      "inputs": [],
      "name": "owner",
      "outputs": [
        {
          "internalType": "address",
          "name": "",
          "type": "address"
        }
      ],
      "stateMutability": "view",
      "type": "function"
    },
    {
      "inputs": [],
      "name": "totalAirdropSupply",
      "outputs": [
        {
          "internalType": "uint256",
          "name": "",
          "type": "uint256"
        }
      ],
      "stateMutability": "view",
      "type": "function"
    },
    {
      "inputs": [],
      "name": "totalClaimed",
      "outputs": [
        {
          "internalType": "uint256",
          "name": "",
          "type": "uint256"
        }
      ],
      "stateMutability": "view",
      "type": "function"
    },
    {
      "inputs": [
        {
          "internalType": "address",
          "name": "to",
          "type": "address"
        }
      ],
      "name": "withdrawToken",
      "outputs": [],
      "stateMutability": "nonpayable",
      "type": "function"
    }
  ],
  "bytecode": "0x60c06040523480156200001157600080fd5b50604051620018f4380380620018f483398181016040528101906200003791906200022a565b8373ffffffffffffffffffffffffffffffffffffffff1660808173ffffffffffffffffffffffffffffffffffffffff1681525050826000806101000a81548173ffffffffffffffffffffffffffffffffffffffff021916908373ffffffffffffffffffffffffffffffffffffffff1602179055508160a0818152505033600160006101000a81548173ffffffffffffffffffffffffffffffffffffffff021916908373ffffffffffffffffffffffffffffffffffffffff16021790555080600281905550505050506200029c565b600080fd5b600073ffffffffffffffffffffffffffffffffffffffff82169050919050565b600062000137826200010a565b9050919050565b60006200014b826200012a565b9050919050565b6200015d816200013e565b81146200016957600080fd5b50565b6000815190506200017d8162000152565b92915050565b6200018e816200012a565b81146200019a57600080fd5b50565b600081519050620001ae8162000183565b92915050565b6000819050919050565b620001c981620001b4565b8114620001d557600080fd5b50565b600081519050620001e981620001be565b92915050565b6000819050919050565b6200020481620001ef565b81146200021057600080fd5b50565b6000815190506200022481620001f9565b92915050565b6000806000806080858703121562000247576200024662000105565b5b600062000257878288016200016c565b94505060206200026a878288016200019d565b93505060406200027d87828801620001d8565b9250506060620002908782880162000213565b91505092959194509250565b60805160a051611616620002de600039600081816101f101526108080152600081816102d60152818161047c0152818161056a01526105e001526116166000f3fe608060405234801561001057600080fd5b506004361061009e5760003560e01c8063aeab26be11610066578063aeab26be14610135578063b8fcf93714610153578063c884ef8314610171578063d54ad2a1146101a1578063dc38bdb5146101bf5761009e565b80632eb4a7ab146100a35780632f52ebb7146100c15780637b647b3a146100dd57806389476069146100fb5780638da5cb5b14610117575b600080fd5b6100ab6101ef565b6040516100b89190610c69565b60405180910390f35b6100db60048036038101906100d69190610d29565b610213565b005b6100e561036d565b6040516100f29190610e08565b60405180910390f35b61011560048036038101906101109190610e61565b610391565b005b61011f6105b2565b60405161012c9190610e9d565b60405180910390f35b61013d6105d8565b60405161014a9190610ec7565b60405180910390f35b61015b6105de565b6040516101689190610f03565b60405180910390f35b61018b60048036038101906101869190610e61565b610602565b6040516101989190610f39565b60405180910390f35b6101a9610622565b6040516101b69190610ec7565b60405180910390f35b6101d960048036038101906101d49190610f54565b610628565b6040516101e69190610f39565b60405180910390f35b7f000000000000000000000000000000000000000000000000000000000000000081565b61021f33848484610628565b61025e576040517f08c379a000000000000000000000000000000000000000000000000000000000815260040161025590611025565b60405180910390fd5b6001600460003373ffffffffffffffffffffffffffffffffffffffff1673ffffffffffffffffffffffffffffffffffffffff16815260200190815260200160002060006101000a81548160ff02191690831515021790555082600360008282546102c89190611074565b9250508190555061031a33847f000000000000000000000000000000000000000000000000000000000000000073ffffffffffffffffffffffffffffffffffffffff166108cb9092919063ffffffff16565b3373ffffffffffffffffffffffffffffffffffffffff167fd8138f8a3f377c5259ca548e70e4c2de94f129f5a11036a15b69513cba2b426a846040516103609190610ec7565b60405180910390a2505050565b60008054906101000a900473ffffffffffffffffffffffffffffffffffffffff1681565b3373ffffffffffffffffffffffffffffffffffffffff16600160009054906101000a900473ffffffffffffffffffffffffffffffffffffffff1673ffffffffffffffffffffffffffffffffffffffff1614610421576040517f08c379a0000000000000000000000000000000000000000000000000000000008152600401610418906110f4565b60405180910390fd5b61042961094a565b610468576040517f08c379a000000000000000000000000000000000000000000000000000000000815260040161045f90611160565b60405180910390fd5b600060035460025461047a9190611180565b7f000000000000000000000000000000000000000000000000000000000000000073ffffffffffffffffffffffffffffffffffffffff166370a08231306040518263ffffffff1660e01b81526004016104d39190610e9d565b602060405180830381865afa1580156104f0573d6000803e3d6000fd5b505050506040513d601f19601f8201168201806040525081019061051491906111c9565b61051e9190611180565b905060008111610563576040517f08c379a000000000000000000000000000000000000000000000000000000000815260040161055a90611242565b60405180910390fd5b6105ae82827f000000000000000000000000000000000000000000000000000000000000000073ffffffffffffffffffffffffffffffffffffffff166108cb9092919063ffffffff16565b5050565b600160009054906101000a900473ffffffffffffffffffffffffffffffffffffffff1681565b60025481565b7f000000000000000000000000000000000000000000000000000000000000000081565b60046020528060005260406000206000915054906101000a900460ff1681565b60035481565b6000600460008673ffffffffffffffffffffffffffffffffffffffff1673ffffffffffffffffffffffffffffffffffffffff16815260200190815260200160002060009054906101000a900460ff16156106b7576040517f08c379a00000000000000000000000000000000000000000000000000000000081526004016106ae906112ae565b60405180910390fd5b60008060009054906101000a900473ffffffffffffffffffffffffffffffffffffffff1673ffffffffffffffffffffffffffffffffffffffff166370a08231876040518263ffffffff1660e01b81526004016107139190610e9d565b602060405180830381865afa158015610730573d6000803e3d6000fd5b505050506040513d601f19601f8201168201806040525081019061075491906111c9565b11610794576040517f08c379a000000000000000000000000000000000000000000000000000000000815260040161078b9061131a565b60405180910390fd5b600033856040516020016107a99291906113a3565b60405160208183030381529060405280519060200120905061082d848480806020026020016040519081016040528093929190818152602001838360200280828437600081840152601f19601f820116905080830192505050505050507f000000000000000000000000000000000000000000000000000000000000000083610959565b61086c576040517f08c379a00000000000000000000000000000000000000000000000000000000081526004016108639061141b565b60405180910390fd5b6002548560035461087d9190611074565b11156108be576040517f08c379a00000000000000000000000000000000000000000000000000000000081526004016108b590611487565b60405180910390fd5b6001915050949350505050565b610945838473ffffffffffffffffffffffffffffffffffffffff1663a9059cbb85856040516024016108fe9291906114a7565b604051602081830303815290604052915060e01b6020820180517bffffffffffffffffffffffffffffffffffffffffffffffffffffffff8381831617835250505050610970565b505050565b60006002546003541015905090565b6000826109668584610a07565b1490509392505050565b600061099b828473ffffffffffffffffffffffffffffffffffffffff16610a5790919063ffffffff16565b905060008151141580156109c05750808060200190518101906109be91906114fc565b155b15610a0257826040517f5274afe70000000000000000000000000000000000000000000000000000000081526004016109f99190610e9d565b60405180910390fd5b505050565b60008082905060005b8451811015610a4c57610a3d82868381518110610a3057610a2f611529565b5b6020026020010151610a6d565b91508080600101915050610a10565b508091505092915050565b6060610a6583836000610a98565b905092915050565b6000818310610a8557610a808284610b65565b610a90565b610a8f8383610b65565b5b905092915050565b606081471015610adf57306040517fcd786059000000000000000000000000000000000000000000000000000000008152600401610ad69190610e9d565b60405180910390fd5b6000808573ffffffffffffffffffffffffffffffffffffffff168486604051610b0891906115c9565b60006040518083038185875af1925050503d8060008114610b45576040519150601f19603f3d011682016040523d82523d6000602084013e610b4a565b606091505b5091509150610b5a868383610b7c565b925050509392505050565b600082600052816020526040600020905092915050565b606082610b9157610b8c82610c0b565b610c03565b60008251148015610bb9575060008473ffffffffffffffffffffffffffffffffffffffff163b145b15610bfb57836040517f9996b315000000000000000000000000000000000000000000000000000000008152600401610bf29190610e9d565b60405180910390fd5b819050610c04565b5b9392505050565b600081511115610c1e5780518082602001fd5b6040517f1425ea4200000000000000000000000000000000000000000000000000000000815260040160405180910390fd5b6000819050919050565b610c6381610c50565b82525050565b6000602082019050610c7e6000830184610c5a565b92915050565b600080fd5b600080fd5b6000819050919050565b610ca181610c8e565b8114610cac57600080fd5b50565b600081359050610cbe81610c98565b92915050565b600080fd5b600080fd5b600080fd5b60008083601f840112610ce957610ce8610cc4565b5b8235905067ffffffffffffffff811115610d0657610d05610cc9565b5b602083019150836020820283011115610d2257610d21610cce565b5b9250929050565b600080600060408486031215610d4257610d41610c84565b5b6000610d5086828701610caf565b935050602084013567ffffffffffffffff811115610d7157610d70610c89565b5b610d7d86828701610cd3565b92509250509250925092565b600073ffffffffffffffffffffffffffffffffffffffff82169050919050565b6000819050919050565b6000610dce610dc9610dc484610d89565b610da9565b610d89565b9050919050565b6000610de082610db3565b9050919050565b6000610df282610dd5565b9050919050565b610e0281610de7565b82525050565b6000602082019050610e1d6000830184610df9565b92915050565b6000610e2e82610d89565b9050919050565b610e3e81610e23565b8114610e4957600080fd5b50565b600081359050610e5b81610e35565b92915050565b600060208284031215610e7757610e76610c84565b5b6000610e8584828501610e4c565b91505092915050565b610e9781610e23565b82525050565b6000602082019050610eb26000830184610e8e565b92915050565b610ec181610c8e565b82525050565b6000602082019050610edc6000830184610eb8565b92915050565b6000610eed82610dd5565b9050919050565b610efd81610ee2565b82525050565b6000602082019050610f186000830184610ef4565b92915050565b60008115159050919050565b610f3381610f1e565b82525050565b6000602082019050610f4e6000830184610f2a565b92915050565b60008060008060608587031215610f6e57610f6d610c84565b5b6000610f7c87828801610e4c565b9450506020610f8d87828801610caf565b935050604085013567ffffffffffffffff811115610fae57610fad610c89565b5b610fba87828801610cd3565b925092505092959194509250565b600082825260208201905092915050565b7f596f7520617265206e6f7420656c696769626c65210000000000000000000000600082015250565b600061100f601583610fc8565b915061101a82610fd9565b602082019050919050565b6000602082019050818103600083015261103e81611002565b9050919050565b7f4e487b7100000000000000000000000000000000000000000000000000000000600052601160045260246000fd5b600061107f82610c8e565b915061108a83610c8e565b92508282019050808211156110a2576110a1611045565b5b92915050565b7f596f7520617265206e6f7420746865206f776e65720000000000000000000000600082015250565b60006110de601583610fc8565b91506110e9826110a8565b602082019050919050565b6000602082019050818103600083015261110d816110d1565b9050919050565b7f41697264726f70206973206e6f7420636f6d706c657465210000000000000000600082015250565b600061114a601883610fc8565b915061115582611114565b602082019050919050565b600060208201905081810360008301526111798161113d565b9050919050565b600061118b82610c8e565b915061119683610c8e565b92508282039050818111156111ae576111ad611045565b5b92915050565b6000815190506111c381610c98565b92915050565b6000602082840312156111df576111de610c84565b5b60006111ed848285016111b4565b91505092915050565b7f4e6f20746f6b656e73206c65667420746f207769746864726177210000000000600082015250565b600061122c601b83610fc8565b9150611237826111f6565b602082019050919050565b6000602082019050818103600083015261125b8161121f565b9050919050565b7f546f6b656e20616c726561647920636c61696d65642100000000000000000000600082015250565b6000611298601683610fc8565b91506112a382611262565b602082019050919050565b600060208201905081810360008301526112c78161128b565b9050919050565b7f4d757374206f776e2042415943204e4654000000000000000000000000000000600082015250565b6000611304601183610fc8565b915061130f826112ce565b602082019050919050565b60006020820190508181036000830152611333816112f7565b9050919050565b60008160601b9050919050565b60006113528261133a565b9050919050565b600061136482611347565b9050919050565b61137c61137782610e23565b611359565b82525050565b6000819050919050565b61139d61139882610c8e565b611382565b82525050565b60006113af828561136b565b6014820191506113bf828461138c565b6020820191508190509392505050565b7f496e76616c69642070726f6f6621000000000000000000000000000000000000600082015250565b6000611405600e83610fc8565b9150611410826113cf565b602082019050919050565b60006020820190508181036000830152611434816113f8565b9050919050565b7f4578636565647320746f74616c2061697264726f7020737570706c7921000000600082015250565b6000611471601d83610fc8565b915061147c8261143b565b602082019050919050565b600060208201905081810360008301526114a081611464565b9050919050565b60006040820190506114bc6000830185610e8e565b6114c96020830184610eb8565b9392505050565b6114d981610f1e565b81146114e457600080fd5b50565b6000815190506114f6816114d0565b92915050565b60006020828403121561151257611511610c84565b5b6000611520848285016114e7565b91505092915050565b7f4e487b7100000000000000000000000000000000000000000000000000000000600052603260045260246000fd5b600081519050919050565b600081905092915050565b60005b8381101561158c578082015181840152602081019050611571565b60008484015250505050565b60006115a382611558565b6115ad8185611563565b93506115bd81856020860161156e565b80840191505092915050565b60006115d58284611598565b91508190509291505056fea2646970667358221220c74f174631a196c8159ab4cbc85826a44f736b7705c7f5678c2c80e6b99629e664736f6c63430008180033",
  "linkReferences": {},
  "deployedLinkReferences": {}
}